:020000040800F2
:1000000000070020890100084F0B0008D90A0008EA
:100010004D0B00088F020008510F0008000000007F
:10002000000000000000000000000000EB0E0008CF
:100030009102000800000000E90E0008ED0E000823
:10004000A3010008A3010008A3010008A301000800
:10005000A3010008A3010008A3010008A3010008F0
:10006000A3010008A3010008A3010008A3010008E0
:10007000A3010008A3010008A3010008A3010008D0
:10008000A3010008A3010008A3010008A3010008C0
:10009000A3010008A3010008A3010008A3010008B0
:1000A000A3010008A3010008A3010008A3010008A0
:1000B000A3010008A3010008A3010008A301000890
:1000C000A3010008A3010008A3010008A301000880
:1000D000A3010008A3010008A3010008A301000870
:1000E000A3010008A3010008A301000800F002F822
:1000F00000F03AF80AA090E8000C82448344AAF188
:100100000107DA4501D100F02FF8AFF2090EBAE885
:100110000F0013F0010F18BFFB1A43F0010318473B
:1001200090190000B0190000103A24BF78C878C1B7
:10013000FAD8520724BF30C830C144BF04680C60ED
:10014000704700000023002400250026103A28BF35
:1001500078C1FBD8520728BF30C148BF0B60704739
:100160001FB51FBD10B510BD00F058F81146FFF7C0
:10017000F7FF00F0FFFE00F076F803B4FFF7F2FFA0
:1001800003BC00F07DF8000009488047094800479B
:10019000FEE7FEE7FEE7FEE7FEE7FEE7FEE7FEE737
:1001A000FEE7FEE704480549054A064B7047000094
:1001B0004F0F0008ED00000800010020000700209C
:1001C00000030020000300204FF0000200B513469A
:1001D00094469646203922BFA0E80C50A0E80C5067
:1001E000B1F12001BFF4F7AF090728BFA0E80C5018
:1001F00048BF0CC05DF804EB890028BF40F8042B11
:1002000008BF704748BF20F8022B11F0804F18BF7D
:1002100000F8012B7047704770477047754600F033
:100220002BF8AE4605006946534620F00700854688
:1002300018B020B5FFF7B6FFBDE820404FF000062C
:100240004FF000074FF000084FF0000B21F00701BE
:10025000AC46ACE8C009ACE8C009ACE8C009ACE801
:10026000C0098D46704710B50446AFF300802046A4
:10027000BDE81040FFF781BF00487047A000002094
:1002800001491820ABBEFEE7260002007047FEE7DA
:100290007047000070B50B4C0022094BD4E90401F3
:1002A00000F0A0FF06460D46206801F083FB3246B1
:1002B0002B4600F0E3FE00F0AFFE206070BD0000B2
:1002C000000059400000002070B5044600F004F919
:1002D0000546601C02D004480078044400F0FCF895
:1002E000401BA042FAD370BD200000202DE9F84F3A
:1002F000DFF8B891002409F1040A0AF1040B23463F
:100300000F270BF1040EC9E00125A5402A40AA429F
:100310007DD1674ED1F804C0ACEB0608B44532D0AD
:1003200014DCBCF1030F3AD009DCBCF1000F2AD079
:10033000BCF1010F1CD0BCF1020F31D11DE0BCF1AA
:10034000110F17D0BCF1120F2AD119E0B8F5881F90
:1003500019D006DCB8F5803F15D0B8F5801F1FD145
:1003600011E0B8F5001F0ED0B8F5041F18D10AE04F
:10037000CB6815E0CB681B1D12E0CB6808330FE09B
:10038000CB680C330CE08B682BB1012B4FF00803CA
:1003900003D0456104E0042302E0056100E000238E
:1003A000FF2A01D8064601E000F104064FEA840561
:1003B00001D9A5F12005D6F8008007FA05FC28EA46
:1003C0000C0803FA05F548EA0508C6F800804D68F0
:1003D000ED0062D5374DAE6946F00106AE61AD69FC
:1003E00024F0030605F001050095334D06EB050CDE
:1003F000DCF80850A607360F07FA06F825EA0805C4
:10040000DFF8B880404503D14FF0000817E044E022
:10041000DFF8AC80404502D14FF001080FE0DFF873
:10042000A480404502D14FF0020808E0DFF8988030
:10043000404502D14FF0030801E04FF0040808FAEC
:1004400006F848EA0508CCF808804D68D9F800603D
:10045000ED034D4601D5164300E096432E604D68EE
:10046000DAF80060AD03554601D5164300E0964327
:100470002E604D68DBF80060ED025D4601D5164345
:1004800000E096432E604D68DEF80060AD027546D0
:1004900001D5164300E096432E60641C0D682A4681
:1004A000E5407FF431AFBDE8F88F00000004014063
:1004B000000011100010024000000140000801403F
:1004C000000C014000100140001401400AB101611C
:1004D00070470904FBE7000001488068704700008E
:1004E0002000002002488168027811448160704732
:1004F00020000020074810B5016841F0100101609C
:10050000032000F067F80F2000F006F800F024F850
:10051000002010BD0020024070B50D4D04464FF480
:100520007A712878B1FBF0F00A490968B1FBF0F064
:1005300000F0BEFA48B9102C07D200222146501E06
:1005400000F028F800206C6070BD012070BD000034
:10055000200000202C0000200C4808B5816941F0E3
:1005600001018161816901F001010091C16941F0DE
:100570008051C161C06900F080500090044841681A
:1005800021F0E06141F00071416008BD00100240BF
:1005900000000140F0B40E4B1B680C46C3F302236D
:1005A000C3F10705042D00D90425191D072901D21F
:1005B000002300E0DB1E012606FA05F1491E21405A
:1005C00099409E40761E16403143F0BC00F0C1BCFD
:1005D0000CED00E0064900F0070208684FF6FF0343
:1005E000184040EA0220034A1043086070470000A8
:1005F0000CED00E00000FA052DE9F0470F4605007C
:1006000061D0434E306800F00700B84209D230682C
:1006100020F0070038433060306800F00700B8422F
:1006200051D128683B4C810712D5400703D560683B
:1006300040F4E06060602878000703D5606840F40B
:10064000605060606068A96820F0F0000843606056
:100650002878C00728D06868012810D021680228AF
:1006600010D0890700292EDA616821F003010143C7
:100670006160FFF731FF804641F288390DE0216863
:100680008903EFE78901EDE7FFF726FFA0EB0801FB
:10069000494502D90320BDE8F0876068696800F029
:1006A0000C00B0EB810FEFD1306800F00700B842CA
:1006B0000BD9306820F0070038433060306800F014
:1006C0000700B84201D00120E5E72878400705D5AA
:1006D0006068E96820F4E0600843606028780007FB
:1006E00006D56068296920F4605040EAC100606066
:1006F00000F018F86168084AC1F30311515CC84062
:100700000649086006480068FFF706FF0020C2E7B8
:100710000020024000100240A01A00082C00002017
:100720002400002012A185B00FC98DE80F0014A08D
:10073000144A006804905168134801F00C03042B1C
:1007400010D0082B0ED1C1F38343C9031DF8030059
:100750000AD5516804AAC1F34041515C0A4A50438A
:10076000B0FBF1F005B0704708494843FAE70000D4
:1007700002030405060708090A0B0C0D0E0F1010E2
:10078000010200000010024000127A0000093D0042
:100790002DE9F84F040070D02078C04DC00749D033
:1007A0006868C0F38100012807D06868C0F3810041
:1007B000022809D16868C00306D52868800339D5A6
:1007C00060680028E7D035E06068B0F5803F0BD066
:1007D00010B1B0F5A02F11D0286820F48030286027
:1007E000286820F4802002E0286840F480302860E7
:1007F000606890B1FFF770FE06460AE0286840F492
:1008000080202860F0E700BFFFF766FE801B6428A9
:1008100073D828688003F7D50CE0FFF75DFE064625
:1008200005E000BFFFF758FE801B6428F0D8286859
:100830008003F7D420789A4E80074FF001094FF0DB
:10084000000839D5686810F00C0F07D06868C0F34D
:100850008100022809D16868C00306D4286880078F
:1008600014D52069012808D110E02069B0B1C6F87C
:100870000090FFF731FE074605E00AE1FFF72CFE86
:10088000C01B0228C4D828688007F7D5286861698A
:1008900020F0F80040EAC10028600DE0C6F80080B2
:1008A000FFF71AFE074604E0FFF716FEC01B0228FA
:1008B00023D828688007F7D4207800072CD57948FA
:1008C000A169D9B1C0F80090FFF706FE074604E021
:1008D000FFF702FEC01B02280FD8686A8007F7D511
:1008E00071484FF4FA510068B0FBF1F0009000BF7E
:1008F0000098411E0091FAD20EE080E0C0F800801E
:10090000FFF7EAFD074604E0FFF7E6FDC01B0228FB
:1009100075D8686A8007F7D42078400760D5E86901
:100920000027C00008D4E86940F08050E861E86919
:10093000012700F0805000905C480168C90513D47D
:100940000168834641F480710160FFF7C5FD82466E
:1009500006E000BFFFF7C0FDA0EB0A0064284ED8F8
:10096000DBF80000C005F5D5E06801280AD008B121
:10097000052813D0286A20F001002862286A20F098
:10098000040002E0286A40F001002862E06841F2B9
:10099000883B98B1FFF7A0FD82460BE0286A40F043
:1009A00004002862EEE700BFFFF796FDA0EB0A0106
:1009B00059455AD8286A8007F6D50CE0FFF78CFD18
:1009C000824605E0FFF788FDA0EB0A0159454CD8A7
:1009D000286A8007F6D41FB1E86920F08050E861EA
:1009E000E06988B36968C1F38101022944D0022813
:1009F000C6F8608004D0FFF76FFD044638E034E0AD
:100A0000FFF76AFD074604E0FFF766FDC01B0228FA
:100A10002BD828688001F7D4206AB0F5803F05D133
:100A20006868A16820F4003008436860D4E90801D0
:100A30000843696821F4741108436860C6F860903F
:100A4000FFF74AFD044606E025E000BFFFF744FD3E
:100A5000001B022809D828688001F7D51BE000BFD9
:100A6000FFF73AFD001B022802D90320BDE8F88FEA
:100A700028688001F4D40EE00128F7D06868226A63
:100A800000F48031914204D1616A00F47010884210
:100A900001D00120EAE70020E8E700000010024052
:100AA00000004242800442422C00002000700040BE
:100AB00010B5401EB0F1807F01D3012010BD4FF072
:100AC000E02460610F21601700F043FA0020A0616C
:100AD00007202061002010BDFEE7000070B586B041
:100AE000002418480094019402940394816941F011
:100AF00010018161816901F010010491816941F067
:100B000020018161816901F020010491816941F036
:100B10000401816180690C4E00F004004FF400551F
:100B20000490002229463046FFF7D0FC01200095B2
:100B3000CDE901040220039069463046FFF7D6FB59
:100B400006B070BD0010024000100140FEE7FEE755
:100B50002DE9F04F85B00446DDE91278DDE9105645
:100B6000DDE914B904F1400CDDF838A08CE80E0082
:100B700000200F49607002460346CDE9000120467F
:100B800000F0E9F80120A0604946204600F0C2F8D4
:100B90008DE8E009524620460F9B00F049F9FFF727
:100BA0009BFCA168401A606005B0BDE8F08F0000B2
:100BB00000E06F402DE9FC5F04464078002872D0C9
:100BC000FFF78AFC61688346401AA16881427FD89A
:100BD000206CD0E900718846A16C3A464346D1E9C1
:100BE000000100F0FDFDD4E9162305460E46384607
:100BF000414600F0F5FD81468A46D4E90C012A46BB
:100C0000334600F0ADFCD4E9142300F037FAC4E910
:100C10001401CDE90001207858B9D4E90A014A4607
:100C2000534600F09DFCDDE9002300F0CDFDC4E952
:100C30001401D4E91401D4E91A2300F08FFD02D283
:100C4000D4E91A0108E0D4E91401D4E9182300F02A
:100C50004BFC03D2D4E91801C4E91401207840B157
:100C6000D4E90A012A46334600F07AFC05460E46CE
:100C700001E000252E46D4E90E014A46534600F015
:100C80006FFCD4E9142300F09FFD2A46334600F0A0
:100C9000F5F9D4E91A2305460E4600F05FFD04D2AB
:100CA000D4E91A560AE011E012E0D4E918232846E4
:100CB000314600F019FC01D2D4E91856606CC0E945
:100CC0000056C4F804B0C4E916780120BDE8FC9FC2
:100CD0000020FBE710B5416C0446D1E90001C4E9EE
:100CE0001401236CD3E90023C4E91623D4E91A23A1
:100CF00000F034FD02D2D4E91A0108E0D4E914016D
:100D0000D4E9182300F0F0FB03D2D4E91801C4E9B8
:100D1000140110BD427872B1C2788A420BD0C36A06
:100D200083F00043C362436B83F000434363C36BB0
:100D300083F00043C363C170704770B50446012956
:100D400001D0002505E06078012510B92046FFF7A5
:100D5000C1FF657070BD2DE9F0411746DDE90665FC
:100D60009846044632462B463846414600F0F6FC8B
:100D700034D9C4E91A65C4E91878607832462B463C
:100D800000282BD0616CD1E9000100F0E7FC03D210
:100D9000D4E91A01626C0AE0D4E91823616CD1E944
:100DA000000100F0A1FB04D2D4E91801626CC2E991
:100DB0000001D4E91401D4E91A2300F0CFFC02D2D7
:100DC000D4E91A0108E0D4E91401D4E9182300F0A9
:100DD0008BFB03D2D4E91801C4E91401BDE8F0810A
:100DE0002DE9F0410E1E044620DDA06800F069FBED
:100DF00007460D46304600F04DFB3A462B4600F0C4
:100E0000F1F907460246D4E90C0E0D460B46714631
:100E100000F0A6FBC4E90C01D4E90E0E3A462B46BD
:100E2000714600F0DFF9A660C4E90E01BDE8F0816B
:100E30002DE9F84F15461E46DDE90BB904460022A0
:100E4000134628463146DDF828A00E9F00F04CFBE3
:100E500044D3002213465046594600F045FB3DD38B
:100E60000022134648460D9900F03EFB36D3A7708A
:100E7000012F35D05FF0000004F8100BA4E8600CDF
:100E80000D9964E80891A06800F01BFB0022154B47
:100E900000F0A8F9C4E90A560746884652465B4660
:100EA000009600F05DFBC4E90C0106468A463A460E
:100EB000434648460D9900F095F9C4E90E01E278E1
:100EC000012A0BD1009A81F0004182F00042C4E96E
:100ED0000A528AF00042E163C4E90C62BDE8F88F6F
:100EE0000120C9E700408F4070477047FFF7FABA0A
:100EF00030B58FB028216846FFF766F914210AA89B
:100F0000FFF762F901210804CDE9001000240294E2
:100F100002250491CDE907504FF4E010099068468E
:100F2000FFF736FC08B172B6FEE70F20CDE90A05DF
:100F30004FF48060CDE90C4002210AA80E94FFF71F
:100F40005BFB002801D072B6FEE70FB030BD7047E2
:100F5000FEE70907090E002804DB00F1E02080F815
:100F60000014704700F00F0000F1E02080F8141D1D
:100F70007047000088B0FFF7BDFAFFF7B9FFFFF731
:100F8000ADFD1F4C1D490020C4E9060101460120AA
:100F9000CDE906011B490020CDE904011A4904F1FD
:100FA0001803CDE902010903CDE90001A3F108020C
:100FB000A2F108011548FFF7CBFD01211348FFF707
:100FC000BCFE4FF4FA711148FFF70AFF00201049E8
:100FD0000246CDE900010F4B0C48FFF7BCFE00BFF5
:100FE000FFF758F900F0E6FCC4E902010748FFF7F3
:100FF000E1FD6420FFF768F9F2E7000000004940D6
:10100000000000200000F03F0000144030000020ED
:1010100000005940000059C021F00042A2F1605286
:10102000B2F5801F01F0004328BFD2F17F6C0BD9CD
:101030005FEA001C43EAC20242EB507018BF7047DF
:1010400028BF20F001007047B2F5801FBCBF1846D2
:1010500070474FEA410C1CF5001F02D2084600F011
:101060001ABD70B500F026FB00000089FFF7F6BF3F
:101070004FF00040A0F580007047000010B591EAE5
:10108000030F48BF83F0004300F1B283841A71EB71
:10109000030C05D2121943EB0C03001B61EB0C018E
:1010A000DFF824E14FEA1154A4EB135C1EEA430F6E
:1010B00018BF9EEA445F73D023EA0E03DCF1200ED2
:1010C00021EA045143F4801332D322FA0CFE10EBD0
:1010D0000E0023FA0CFE41EB0E01CCF1200E03FAB8
:1010E0000EFE10EB0E0051F10001B1F5801FCCF1A6
:1010F000200E32D201EB045112FA0EF2BDE810407C
:1011000058BF7047401C38BF5FEA420218BF7047A3
:10111000002814BF20F0010041F100014FEA410313
:1011200013F5001F38BF7047A1F1C04100F010BB9C
:10113000012A43EB0302ACF1200CDCF11F0E32BF9D
:101140004FF0000E23FA0CF310EB030041EB0451B7
:10115000B4EB115FD0D0A1EB045101F58011490827
:101160005FEA300001EB04510ED350F1000038BFAC
:1011700012FA0EFE08D1BDE81040C9E7401C38BF86
:101180005FEA4202CAD1C3E7BDE810404FEA41031B
:1011900013F5001F38BF7047A1F1C04100F0D8BA65
:1011A0009EEA445F08D011EA5E0FBDE8104004BF1C
:1011B00001F0004100207047BDE8104070B500F01C
:1011C00079FA00BF64FBBE3E0000E0FF491058BF43
:1011D000C1F140415B1058BFC3F140438B42EFF374
:1011E000008070472DE9C04130B4DFF8A0C23CEA6E
:1011F000111418BF3CEA131400F0EC8081EA0305D7
:101200001CEA111444EAD57418BF1CEA131500F047
:10121000C780A4EB05044FF0004545EAC12145EA2B
:10122000C32341EA505143EA525304F17F74994277
:1012300004F500344FEAC0204FEAC22208BF9042B2
:1012400000F09C804FEA13650FF24016765D4FEA7E
:10125000134506FB05F7C7F1807706FB07F74FEA52
:10126000D737A7FB03687642C8F58038A7FB06CEC0
:1012700038BFA8F1010807FB08E64FF0000EA6FBF7
:10128000028CE6FB03CEDCF1000CCEF1004E38BF41
:10129000AEF1010EA6FB0C584FF000074FF0000511
:1012A000E6FB0E87A1FB08C6A0FB07CE16EB0E06D9
:1012B00045F10005E1FB076515F1E04E7EBFA4F5A1
:1012C00080345FEA46066D4116F1800745F100055E
:1012D0004FEA17274FEA066647EA0567A6F1DE469A
:1012E000B6F1805F4FEA15251FD9384624F0010C6E
:1012F00005EBC471BCF1FE6F01EB0C1102D8F0BC20
:10130000BDE8008124425CBF01F5801E9EEAC47FD7
:1013100002D4F0BCBDE80081244238D4F0BCA1F175
:10132000C041BDE8004100F013BA4FEAD22242EAC0
:1013300043524FEAD323A7FB02864FEAD02040EA6C
:10134000415007FB03661EEA0E0F4FEAD12105FB51
:10135000026658BFA6EB0056B6EB00564FEA520E97
:101360004EEAC37E18EB0E0E56EB530EBDD518EBAE
:1013700002085E417F1C55F10005B6E74FF4801569
:101380004FF000074FF000064FF00008ADE7F0BC4B
:101390004FF0000001F1C04101F00041BDE80081C3
:1013A00011EA0C1F0CEA131500D00CE013EA0C1F15
:1013B00000F025804FF00000F0BC81EA030101F04D
:1013C0000041BDE80081F0BCBDE8004181EA0301B5
:1013D00000F0BEB9F0BCBDE8004170B500F06AF99C
:1013E000097EFC3E00F007B881EA03014FF00000DF
:1013F00001F00041704781EA030100F0A9B9F0BC97
:10140000BDE800414FF0000021497047FFFDFBF9A6
:10141000F7F5F4F2F0EEEDEBE9E8E6E4E3E1E0DE27
:10142000DDDBDAD8D7D5D4D3D1D0CFCDCCCBCAC899
:10143000C7C6C5C4C2C1C0BFBEBDBCBBBAB9B8B7C0
:10144000B6B5B4B3B2B1B0AFAEADACABAAA9A8A8B3
:10145000A7A6A5A4A3A3A2A1A09F9F9E9D9C9C9B81
:101460009A9999989797969595949393929191902C
:101470008F8F8E8E8D8C8C8B8B8A898988888787BD
:101480008685858484838382828181800000FF0732
:101490000000F87F10F0004248BF4042B0FA80F3ED
:1014A00010FA03F10AD0C3F11D0303F580634FEA7C
:1014B000415002EB035202EBD12170474FF0000084
:1014C0007047B0FA80F310FA03F10AD0C3F11D039C
:1014D00003F580634FEA41504FEA035202EBD121FA
:1014E00070474FF00000704751EA030C17D41CF509
:1014F000801F58BFBCF5801F00F10680994218BFBD
:10150000704708BF9042704707D711F5801F58BF3A
:1015100013F5801F19D499427047894270471CF512
:10152000801F08D5BCF5801FF7D58B4218BF7047C8
:1015300008BF824270474FF4001C1CEB410F38BFBC
:101540001CEB430F01D28B42704770B500F0B2F82C
:10155000922449004FF000514FF08053FFF736BE00
:10156000DFF848C170B51CEA111E1EBF1CEA131536
:101570009EEA0C0F95EA0C0F00F06F8081EA0304DD
:1015800023EA4C134EEAD47E21EA4C1141F4801137
:1015900043F48013AE44A1FB024CA0FB0365AEF103
:1015A0007F7E361955EB0C05A1FB034C4CF1000373
:1015B000A0FB021C16EB0C06654153F10003094227
:1015C00018BF46F0010613F4007F0BD14FEA033138
:1015D0004FEA0530340341EA155140EA16506FF0E6
:1015E00003020AE04FEAC3214FEAC520F40241EAB0
:1015F000555140EA56506FF0020202EB2E4201EBC9
:10160000025585EACE710AD05FEA440C18BF24F077
:10161000004450F1000041F1000120EAD47040F292
:10162000FE7C624500D270BDA84214BF4FF08044DA
:101630004FF04044002E08BF0024BEF1806FA8BFC9
:10164000A1F1C041BDE8704080F282804FF00000FF
:1016500001F1C04101F0004170479EEA0C0F0CEA15
:10166000131518BF95EA0C0F06D04FF0000081EA61
:10167000030E0EF0004170BD00F01CF88900013E21
:1016800000F007B800F009B84FEA430C5FEA5C5C71
:1016900008D081EA030100F05BB84FEA410C5FEA31
:1016A0005C5CF6D14FF00000014970470000FF0775
:1016B0000000F87F0EF1020E2EF0030E5EF8046BB0
:1016C000364205D4012A43EB030515F5001F12D855
:1016D000012841EB010C1CF5001F0CD80ED14FEA7C
:1016E000D17C15F5001F0CEB4C0C0CF1020C08BF63
:1016F0004CEBD37C04E04FF0080C01E04FEAD37CC4
:101700000CEB4C0526FA05F606F00706B6F1040CBC
:1017100006D20EEB860CBDE870404CF0010C604721
:10172000DFE80CF0090B02024FF000414FF000001F
:10173000A1F5002170BD19461046012851EB0104A6
:1017400018BFD4F5001484BF002001F0004170BD23
:101750000808A0F500114FEA3101704753EA010C67
:1017600017D41CF5801F58BFBCF5801F00F1068000
:101770008B4218BF704708BF8242704707D713F5E6
:10178000801F58BF11F5801F19D48B4270479B42B0
:1017900070471CF5801F08D5BCF5801FF7D599420E
:1017A00018BF704708BF904270474FF4001C1CEBF5
:1017B000430F38BF1CEB410F01D2994270470FB461
:1017C0000CBC03BCFFF7C1BE91EA030F10B581F05A
:1017D00000413FF55BAC83F0004300F009B8000026
:1017E00010B591EA030F48BF83F000433FF54EACBC
:1017F000841A71EB030C07D212198CF0004C43EBE6
:101800000C03001B61EB0C01DFF8A4E14FEA11545B
:10181000A4EB135C1EEA430F18BF9EEA445F00F07E
:10182000B08023EA6E03524221EA0451C3EB6E03F7
:1018300038BF5B1EDCF1200E25D322FA0CFE10EB24
:101840000E0043FA0CFE41EB0E01CCF1200E03FA20
:101850000EFE10EB0E0051F10001CCF1200E29D448
:1018600012FA0EF201EB0451BDE8104058BF704768
:10187000401C1CBFB2F1004F704700280CBF491C30
:1018800020F00100704712EB020E43EB030218BF79
:101890004FF0010E4EEA4202ACF1200CDCF11E0EBC
:1018A00054D943FA0CFE10EB0E0051F1FF31CCF18C
:1018B0001E0ED5D50EF1010E12FA0EFE404141EB7F
:1018C000010101EB445C5FEA5C5C10D910EBDE7057
:1018D00001EB045138BFBEF1004FBDE8104018BF06
:1018E000704700280CBF491C20F00100704730D21F
:1018F0004FEAD42C11F5001124F400641BD0B1FA86
:1019000081F20B3AA41AA41ED2F12003914030FABE
:1019100003F31943904001EBCC71002C01EB04510F
:10192000BDE81040A8BF704701F1C0414FF0000072
:1019300001F000417047B0FA80F310FA03F100D1D2
:1019400010BDE41A173C4805C90AE4E701EB04514D
:1019500010BD491001EB0451BDE810404FEA3000C2
:1019600002E04FF0000170474A0008BF0042F8D083
:10197000B2F5001F28BF704701F000414FF0000092
:1019800070479EEA445F07D011EA5E0FBDE8104041
:1019900004BF002100207047BDE8104070B5FFF77C
:1019A00089FE00BF40DFF63E83F0004110467047DD
:1019B0000000E0FF43004FEAD30C4FEA3C0C4340E9
:1019C0001FBF40070CF1605113F0FE4F70471CF031
:1019D000006F03D100200CF0004170470CF0004371
:1019E00043EA507010B540EACC0000F00EF800BF9A
:1019F000000000924FEA0001FFF7AABE4FF000413D
:101A00004FF00000A1F5002170470EF1020E2EF0FC
:101A1000030E5EF8044B244204D44FEA4102B2F1B3
:101A20007F4F11D84FEA4003B3F17F4F0CD80ED14E
:101A30004FEAD07CB2F17F4F0CEB4C0C0CF1020C56
:101A400008BF4CEBD17C04E04FF0080C01E04FEAFA
:101A5000D17C0CEB4C0324FA03F404F00704B4F13A
:101A6000040C06D20EEB840CBDE810404CF0010CC7
:101A70006047DFE80CF0070802024FF00040A0F5D5
:101A8000800010BD0846420018BFD2F1807288BFA6
:101A900000F0004010BDFF2141EAD050C005704762
:101AA000000000000000000001020304060708090E
:101AB000D01A0008000000203000000028010008B3
:101AC000001B000830000020D00600004401000880
:101AD0000000000000000000000000000000000006
:101AE00000000000000000000000000000000000F6
:101AF0000100000010000000000000000024F400BD
:04000005080000ED02
:00000001FF
